{
  "_format": "hh-sol-artifact-1",
  "contractName": "WETH",
  "sourceName": "contracts/WETH.sol",
  "abi": [
    {
      "inputs": [
        {
          "internalType": "uint256",
          "name": "initialSupply",
          "type": "uint256"
        }
      ],
      "stateMutability": "nonpayable",
      "type": "constructor"
    },
    {
      "inputs": [],
      "name": "WETH_AnErrorOccured",
      "type": "error"
    },
    {
      "anonymous": false,
      "inputs": [
        {
          "indexed": true,
          "internalType": "address",
          "name": "owner",
          "type": "address"
        },
        {
          "indexed": true,
          "internalType": "address",
          "name": "spender",
          "type": "address"
        },
        {
          "indexed": false,
          "internalType": "uint256",
          "name": "value",
          "type": "uint256"
        }
      ],
      "name": "Approval",
      "type": "event"
    },
    {
      "anonymous": false,
      "inputs": [
        {
          "indexed": false,
          "internalType": "address",
          "name": "",
          "type": "address"
        },
        {
          "indexed": false,
          "internalType": "uint256",
          "name": "",
          "type": "uint256"
        }
      ],
      "name": "Deposit",
      "type": "event"
    },
    {
      "anonymous": false,
      "inputs": [
        {
          "indexed": true,
          "internalType": "address",
          "name": "from",
          "type": "address"
        },
        {
          "indexed": true,
          "internalType": "address",
          "name": "to",
          "type": "address"
        },
        {
          "indexed": false,
          "internalType": "uint256",
          "name": "value",
          "type": "uint256"
        }
      ],
      "name": "Transfer",
      "type": "event"
    },
    {
      "anonymous": false,
      "inputs": [
        {
          "indexed": false,
          "internalType": "address",
          "name": "",
          "type": "address"
        },
        {
          "indexed": false,
          "internalType": "uint256",
          "name": "",
          "type": "uint256"
        }
      ],
      "name": "Withdraw",
      "type": "event"
    },
    {
      "stateMutability": "payable",
      "type": "fallback"
    },
    {
      "inputs": [
        {
          "internalType": "address",
          "name": "owner",
          "type": "address"
        },
        {
          "internalType": "address",
          "name": "spender",
          "type": "address"
        }
      ],
      "name": "allowance",
      "outputs": [
        {
          "internalType": "uint256",
          "name": "",
          "type": "uint256"
        }
      ],
      "stateMutability": "view",
      "type": "function"
    },
    {
      "inputs": [
        {
          "internalType": "address",
          "name": "spender",
          "type": "address"
        },
        {
          "internalType": "uint256",
          "name": "amount",
          "type": "uint256"
        }
      ],
      "name": "approve",
      "outputs": [
        {
          "internalType": "bool",
          "name": "",
          "type": "bool"
        }
      ],
      "stateMutability": "nonpayable",
      "type": "function"
    },
    {
      "inputs": [
        {
          "internalType": "address",
          "name": "account",
          "type": "address"
        }
      ],
      "name": "balanceOf",
      "outputs": [
        {
          "internalType": "uint256",
          "name": "",
          "type": "uint256"
        }
      ],
      "stateMutability": "view",
      "type": "function"
    },
    {
      "inputs": [],
      "name": "decimals",
      "outputs": [
        {
          "internalType": "uint8",
          "name": "",
          "type": "uint8"
        }
      ],
      "stateMutability": "view",
      "type": "function"
    },
    {
      "inputs": [
        {
          "internalType": "address",
          "name": "spender",
          "type": "address"
        },
        {
          "internalType": "uint256",
          "name": "subtractedValue",
          "type": "uint256"
        }
      ],
      "name": "decreaseAllowance",
      "outputs": [
        {
          "internalType": "bool",
          "name": "",
          "type": "bool"
        }
      ],
      "stateMutability": "nonpayable",
      "type": "function"
    },
    {
      "inputs": [],
      "name": "deposit",
      "outputs": [],
      "stateMutability": "payable",
      "type": "function"
    },
    {
      "inputs": [],
      "name": "ethBalance",
      "outputs": [
        {
          "internalType": "uint256",
          "name": "",
          "type": "uint256"
        }
      ],
      "stateMutability": "view",
      "type": "function"
    },
    {
      "inputs": [
        {
          "internalType": "address",
          "name": "spender",
          "type": "address"
        },
        {
          "internalType": "uint256",
          "name": "addedValue",
          "type": "uint256"
        }
      ],
      "name": "increaseAllowance",
      "outputs": [
        {
          "internalType": "bool",
          "name": "",
          "type": "bool"
        }
      ],
      "stateMutability": "nonpayable",
      "type": "function"
    },
    {
      "inputs": [],
      "name": "name",
      "outputs": [
        {
          "internalType": "string",
          "name": "",
          "type": "string"
        }
      ],
      "stateMutability": "view",
      "type": "function"
    },
    {
      "inputs": [],
      "name": "symbol",
      "outputs": [
        {
          "internalType": "string",
          "name": "",
          "type": "string"
        }
      ],
      "stateMutability": "view",
      "type": "function"
    },
    {
      "inputs": [],
      "name": "totalSupply",
      "outputs": [
        {
          "internalType": "uint256",
          "name": "",
          "type": "uint256"
        }
      ],
      "stateMutability": "view",
      "type": "function"
    },
    {
      "inputs": [
        {
          "internalType": "address",
          "name": "to",
          "type": "address"
        },
        {
          "internalType": "uint256",
          "name": "amount",
          "type": "uint256"
        }
      ],
      "name": "transfer",
      "outputs": [
        {
          "internalType": "bool",
          "name": "",
          "type": "bool"
        }
      ],
      "stateMutability": "nonpayable",
      "type": "function"
    },
    {
      "inputs": [
        {
          "internalType": "address",
          "name": "from",
          "type": "address"
        },
        {
          "internalType": "address",
          "name": "to",
          "type": "address"
        },
        {
          "internalType": "uint256",
          "name": "amount",
          "type": "uint256"
        }
      ],
      "name": "transferFrom",
      "outputs": [
        {
          "internalType": "bool",
          "name": "",
          "type": "bool"
        }
      ],
      "stateMutability": "nonpayable",
      "type": "function"
    },
    {
      "inputs": [
        {
          "internalType": "uint256",
          "name": "amount",
          "type": "uint256"
        }
      ],
      "name": "withdraw",
      "outputs": [],
      "stateMutability": "nonpayable",
      "type": "function"
    },
    {
      "stateMutability": "payable",
      "type": "receive"
    }
  ],
  "bytecode": "0x60806040523480156200001157600080fd5b5060405162001fb438038062001fb4833981810160405281019062000037919062000118565b6040518060400160405280600d81526020017f57726170706564204574686572000000000000000000000000000000000000008152506040518060400160405280600481526020017f57455448000000000000000000000000000000000000000000000000000000008152508160039081620000b49190620003ba565b508060049081620000c69190620003ba565b505050600160058190555050620004a1565b600080fd5b6000819050919050565b620000f281620000dd565b8114620000fe57600080fd5b50565b6000815190506200011281620000e7565b92915050565b600060208284031215620001315762000130620000d8565b5b6000620001418482850162000101565b91505092915050565b600081519050919050565b7f4e487b7100000000000000000000000000000000000000000000000000000000600052604160045260246000fd5b7f4e487b7100000000000000000000000000000000000000000000000000000000600052602260045260246000fd5b60006002820490506001821680620001cc57607f821691505b602082108103620001e257620001e162000184565b5b50919050565b60008190508160005260206000209050919050565b60006020601f8301049050919050565b600082821b905092915050565b6000600883026200024c7fffffffffffffffffffffffffffffffffffffffffffffffffffffffffffffffff826200020d565b6200025886836200020d565b95508019841693508086168417925050509392505050565b6000819050919050565b60006200029b620002956200028f84620000dd565b62000270565b620000dd565b9050919050565b6000819050919050565b620002b7836200027a565b620002cf620002c682620002a2565b8484546200021a565b825550505050565b600090565b620002e6620002d7565b620002f3818484620002ac565b505050565b5b818110156200031b576200030f600082620002dc565b600181019050620002f9565b5050565b601f8211156200036a576200033481620001e8565b6200033f84620001fd565b810160208510156200034f578190505b620003676200035e85620001fd565b830182620002f8565b50505b505050565b600082821c905092915050565b60006200038f600019846008026200036f565b1980831691505092915050565b6000620003aa83836200037c565b9150826002028217905092915050565b620003c5826200014a565b67ffffffffffffffff811115620003e157620003e062000155565b5b620003ed8254620001b3565b620003fa8282856200031f565b600060209050601f8311600181146200043257600084156200041d578287015190505b6200042985826200039c565b86555062000499565b601f1984166200044286620001e8565b60005b828110156200046c5784890151825560018201915060208501945060208101905062000445565b868310156200048c578489015162000488601f8916826200037c565b8355505b6001600288020188555050505b505050505050565b611b0380620004b16000396000f3fe6080604052600436106100e15760003560e01c80634e6630b01161007f578063a457c2d711610059578063a457c2d7146102e4578063a9059cbb14610321578063d0e30db01461035e578063dd62ed3e14610368576100eb565b80634e6630b01461025157806370a082311461027c57806395d89b41146102b9576100eb565b806323b872dd116100bb57806323b872dd146101835780632e1a7d4d146101c0578063313ce567146101e95780633950935114610214576100eb565b806306fdde03146100f0578063095ea7b31461011b57806318160ddd14610158576100eb565b366100eb57600080fd5b600080fd5b3480156100fc57600080fd5b506101056103a5565b6040516101129190611105565b60405180910390f35b34801561012757600080fd5b50610142600480360381019061013d91906111c0565b610437565b60405161014f919061121b565b60405180910390f35b34801561016457600080fd5b5061016d61045a565b60405161017a9190611245565b60405180910390f35b34801561018f57600080fd5b506101aa60048036038101906101a59190611260565b610464565b6040516101b7919061121b565b60405180910390f35b3480156101cc57600080fd5b506101e760048036038101906101e291906112b3565b610493565b005b3480156101f557600080fd5b506101fe6105d2565b60405161020b91906112fc565b60405180910390f35b34801561022057600080fd5b5061023b600480360381019061023691906111c0565b6105db565b604051610248919061121b565b60405180910390f35b34801561025d57600080fd5b50610266610612565b6040516102739190611245565b60405180910390f35b34801561028857600080fd5b506102a3600480360381019061029e9190611317565b61061a565b6040516102b09190611245565b60405180910390f35b3480156102c557600080fd5b506102ce610662565b6040516102db9190611105565b60405180910390f35b3480156102f057600080fd5b5061030b600480360381019061030691906111c0565b6106f4565b604051610318919061121b565b60405180910390f35b34801561032d57600080fd5b50610348600480360381019061034391906111c0565b61076b565b604051610355919061121b565b60405180910390f35b61036661078e565b005b34801561037457600080fd5b5061038f600480360381019061038a9190611344565b6107d3565b60405161039c9190611245565b60405180910390f35b6060600380546103b4906113b3565b80601f01602080910402602001604051908101604052809291908181526020018280546103e0906113b3565b801561042d5780601f106104025761010080835404028352916020019161042d565b820191906000526020600020905b81548152906001019060200180831161041057829003601f168201915b5050505050905090565b60008061044261085a565b905061044f818585610862565b600191505092915050565b6000600254905090565b60008061046f61085a565b905061047c858285610a2b565b610487858585610ab7565b60019150509392505050565b6002600554036104d8576040517f08c379a00000000000000000000000000000000000000000000000000000000081526004016104cf90611430565b60405180910390fd5b60026005819055506104ea3382610d36565b60003373ffffffffffffffffffffffffffffffffffffffff168260405161051090611481565b60006040518083038185875af1925050503d806000811461054d576040519150601f19603f3d011682016040523d82523d6000602084013e610552565b606091505b505090508061058d576040517f5c42371700000000000000000000000000000000000000000000000000000000815260040160405180910390fd5b7f884edad9ce6fa2440d8a54cc123490eb96d2768479d49ff9c7366125a942436433836040516105be9291906114a5565b60405180910390a150600160058190555050565b60006012905090565b6000806105e661085a565b90506106078185856105f885896107d3565b61060291906114fd565b610862565b600191505092915050565b600047905090565b60008060008373ffffffffffffffffffffffffffffffffffffffff1673ffffffffffffffffffffffffffffffffffffffff168152602001908152602001600020549050919050565b606060048054610671906113b3565b80601f016020809104026020016040519081016040528092919081815260200182805461069d906113b3565b80156106ea5780601f106106bf576101008083540402835291602001916106ea565b820191906000526020600020905b8154815290600101906020018083116106cd57829003601f168201915b5050505050905090565b6000806106ff61085a565b9050600061070d82866107d3565b905083811015610752576040517f08c379a0000000000000000000000000000000000000000000000000000000008152600401610749906115a3565b60405180910390fd5b61075f8286868403610862565b60019250505092915050565b60008061077661085a565b9050610783818585610ab7565b600191505092915050565b6107983334610f0c565b7fe1fffcc4923d04b559f4d29a8bfc6cda04eb5b0d3c460751c2402c5c5cc9109c33346040516107c99291906114a5565b60405180910390a1565b6000600160008473ffffffffffffffffffffffffffffffffffffffff1673ffffffffffffffffffffffffffffffffffffffff16815260200190815260200160002060008373ffffffffffffffffffffffffffffffffffffffff1673ffffffffffffffffffffffffffffffffffffffff16815260200190815260200160002054905092915050565b600033905090565b600073ffffffffffffffffffffffffffffffffffffffff168373ffffffffffffffffffffffffffffffffffffffff16036108d1576040517f08c379a00000000000000000000000000000000000000000000000000000000081526004016108c890611635565b60405180910390fd5b600073ffffffffffffffffffffffffffffffffffffffff168273ffffffffffffffffffffffffffffffffffffffff1603610940576040517f08c379a0000000000000000000000000000000000000000000000000000000008152600401610937906116c7565b60405180910390fd5b80600160008573ffffffffffffffffffffffffffffffffffffffff1673ffffffffffffffffffffffffffffffffffffffff16815260200190815260200160002060008473ffffffffffffffffffffffffffffffffffffffff1673ffffffffffffffffffffffffffffffffffffffff168152602001908152602001600020819055508173ffffffffffffffffffffffffffffffffffffffff168373ffffffffffffffffffffffffffffffffffffffff167f8c5be1e5ebec7d5bd14f71427d1e84f3dd0314c0f7b2291e5b200ac8c7c3b92583604051610a1e9190611245565b60405180910390a3505050565b6000610a3784846107d3565b90507fffffffffffffffffffffffffffffffffffffffffffffffffffffffffffffffff8114610ab15781811015610aa3576040517f08c379a0000000000000000000000000000000000000000000000000000000008152600401610a9a90611733565b60405180910390fd5b610ab08484848403610862565b5b50505050565b600073ffffffffffffffffffffffffffffffffffffffff168373ffffffffffffffffffffffffffffffffffffffff1603610b26576040517f08c379a0000000000000000000000000000000000000000000000000000000008152600401610b1d906117c5565b60405180910390fd5b600073ffffffffffffffffffffffffffffffffffffffff168273ffffffffffffffffffffffffffffffffffffffff1603610b95576040517f08c379a0000000000000000000000000000000000000000000000000000000008152600401610b8c90611857565b60405180910390fd5b610ba083838361106b565b60008060008573ffffffffffffffffffffffffffffffffffffffff1673ffffffffffffffffffffffffffffffffffffffff16815260200190815260200160002054905081811015610c26576040517f08c379a0000000000000000000000000000000000000000000000000000000008152600401610c1d906118e9565b60405180910390fd5b8181036000808673ffffffffffffffffffffffffffffffffffffffff1673ffffffffffffffffffffffffffffffffffffffff16815260200190815260200160002081905550816000808573ffffffffffffffffffffffffffffffffffffffff1673ffffffffffffffffffffffffffffffffffffffff1681526020019081526020016000206000828254610cb991906114fd565b925050819055508273ffffffffffffffffffffffffffffffffffffffff168473ffffffffffffffffffffffffffffffffffffffff167fddf252ad1be2c89b69c2b068fc378daa952ba7f163c4a11628f55a4df523b3ef84604051610d1d9190611245565b60405180910390a3610d30848484611070565b50505050565b600073ffffffffffffffffffffffffffffffffffffffff168273ffffffffffffffffffffffffffffffffffffffff1603610da5576040517f08c379a0000000000000000000000000000000000000000000000000000000008152600401610d9c9061197b565b60405180910390fd5b610db18260008361106b565b60008060008473ffffffffffffffffffffffffffffffffffffffff1673ffffffffffffffffffffffffffffffffffffffff16815260200190815260200160002054905081811015610e37576040517f08c379a0000000000000000000000000000000000000000000000000000000008152600401610e2e90611a0d565b60405180910390fd5b8181036000808573ffffffffffffffffffffffffffffffffffffffff1673ffffffffffffffffffffffffffffffffffffffff168152602001908152602001600020819055508160026000828254610e8e9190611a2d565b92505081905550600073ffffffffffffffffffffffffffffffffffffffff168373ffffffffffffffffffffffffffffffffffffffff167fddf252ad1be2c89b69c2b068fc378daa952ba7f163c4a11628f55a4df523b3ef84604051610ef39190611245565b60405180910390a3610f0783600084611070565b505050565b600073ffffffffffffffffffffffffffffffffffffffff168273ffffffffffffffffffffffffffffffffffffffff1603610f7b576040517f08c379a0000000000000000000000000000000000000000000000000000000008152600401610f7290611aad565b60405180910390fd5b610f876000838361106b565b8060026000828254610f9991906114fd565b92505081905550806000808473ffffffffffffffffffffffffffffffffffffffff1673ffffffffffffffffffffffffffffffffffffffff1681526020019081526020016000206000828254610fee91906114fd565b925050819055508173ffffffffffffffffffffffffffffffffffffffff16600073ffffffffffffffffffffffffffffffffffffffff167fddf252ad1be2c89b69c2b068fc378daa952ba7f163c4a11628f55a4df523b3ef836040516110539190611245565b60405180910390a361106760008383611070565b5050565b505050565b505050565b600081519050919050565b600082825260208201905092915050565b60005b838110156110af578082015181840152602081019050611094565b60008484015250505050565b6000601f19601f8301169050919050565b60006110d782611075565b6110e18185611080565b93506110f1818560208601611091565b6110fa816110bb565b840191505092915050565b6000602082019050818103600083015261111f81846110cc565b905092915050565b600080fd5b600073ffffffffffffffffffffffffffffffffffffffff82169050919050565b60006111578261112c565b9050919050565b6111678161114c565b811461117257600080fd5b50565b6000813590506111848161115e565b92915050565b6000819050919050565b61119d8161118a565b81146111a857600080fd5b50565b6000813590506111ba81611194565b92915050565b600080604083850312156111d7576111d6611127565b5b60006111e585828601611175565b92505060206111f6858286016111ab565b9150509250929050565b60008115159050919050565b61121581611200565b82525050565b6000602082019050611230600083018461120c565b92915050565b61123f8161118a565b82525050565b600060208201905061125a6000830184611236565b92915050565b60008060006060848603121561127957611278611127565b5b600061128786828701611175565b935050602061129886828701611175565b92505060406112a9868287016111ab565b9150509250925092565b6000602082840312156112c9576112c8611127565b5b60006112d7848285016111ab565b91505092915050565b600060ff82169050919050565b6112f6816112e0565b82525050565b600060208201905061131160008301846112ed565b92915050565b60006020828403121561132d5761132c611127565b5b600061133b84828501611175565b91505092915050565b6000806040838503121561135b5761135a611127565b5b600061136985828601611175565b925050602061137a85828601611175565b9150509250929050565b7f4e487b7100000000000000000000000000000000000000000000000000000000600052602260045260246000fd5b600060028204905060018216806113cb57607f821691505b6020821081036113de576113dd611384565b5b50919050565b7f5265656e7472616e637947756172643a207265656e7472616e742063616c6c00600082015250565b600061141a601f83611080565b9150611425826113e4565b602082019050919050565b600060208201905081810360008301526114498161140d565b9050919050565b600081905092915050565b50565b600061146b600083611450565b91506114768261145b565b600082019050919050565b600061148c8261145e565b9150819050919050565b61149f8161114c565b82525050565b60006040820190506114ba6000830185611496565b6114c76020830184611236565b9392505050565b7f4e487b7100000000000000000000000000000000000000000000000000000000600052601160045260246000fd5b60006115088261118a565b91506115138361118a565b925082820190508082111561152b5761152a6114ce565b5b92915050565b7f45524332303a2064656372656173656420616c6c6f77616e63652062656c6f7760008201527f207a65726f000000000000000000000000000000000000000000000000000000602082015250565b600061158d602583611080565b915061159882611531565b604082019050919050565b600060208201905081810360008301526115bc81611580565b9050919050565b7f45524332303a20617070726f76652066726f6d20746865207a65726f2061646460008201527f7265737300000000000000000000000000000000000000000000000000000000602082015250565b600061161f602483611080565b915061162a826115c3565b604082019050919050565b6000602082019050818103600083015261164e81611612565b9050919050565b7f45524332303a20617070726f766520746f20746865207a65726f20616464726560008201527f7373000000000000000000000000000000000000000000000000000000000000602082015250565b60006116b1602283611080565b91506116bc82611655565b604082019050919050565b600060208201905081810360008301526116e0816116a4565b9050919050565b7f45524332303a20696e73756666696369656e7420616c6c6f77616e6365000000600082015250565b600061171d601d83611080565b9150611728826116e7565b602082019050919050565b6000602082019050818103600083015261174c81611710565b9050919050565b7f45524332303a207472616e736665722066726f6d20746865207a65726f20616460008201527f6472657373000000000000000000000000000000000000000000000000000000602082015250565b60006117af602583611080565b91506117ba82611753565b604082019050919050565b600060208201905081810360008301526117de816117a2565b9050919050565b7f45524332303a207472616e7366657220746f20746865207a65726f206164647260008201527f6573730000000000000000000000000000000000000000000000000000000000602082015250565b6000611841602383611080565b915061184c826117e5565b604082019050919050565b6000602082019050818103600083015261187081611834565b9050919050565b7f45524332303a207472616e7366657220616d6f756e742065786365656473206260008201527f616c616e63650000000000000000000000000000000000000000000000000000602082015250565b60006118d3602683611080565b91506118de82611877565b604082019050919050565b60006020820190508181036000830152611902816118c6565b9050919050565b7f45524332303a206275726e2066726f6d20746865207a65726f2061646472657360008201527f7300000000000000000000000000000000000000000000000000000000000000602082015250565b6000611965602183611080565b915061197082611909565b604082019050919050565b6000602082019050818103600083015261199481611958565b9050919050565b7f45524332303a206275726e20616d6f756e7420657863656564732062616c616e60008201527f6365000000000000000000000000000000000000000000000000000000000000602082015250565b60006119f7602283611080565b9150611a028261199b565b604082019050919050565b60006020820190508181036000830152611a26816119ea565b9050919050565b6000611a388261118a565b9150611a438361118a565b9250828203905081811115611a5b57611a5a6114ce565b5b92915050565b7f45524332303a206d696e7420746f20746865207a65726f206164647265737300600082015250565b6000611a97601f83611080565b9150611aa282611a61565b602082019050919050565b60006020820190508181036000830152611ac681611a8a565b905091905056fea264697066735822122033a23b4e83a9ea871e21f126531d7bfcd92814d1bb2587a40910e77e8efb268764736f6c63430008110033",
  "linkReferences": {},
  "deployedLinkReferences": {}
}